:400000000080002011000000050100000501000080B500AF034B044A12681A6000F028FB00F074F8BC760040FA46004010B5054C237833B9044B13B10448AFF300800123EC
:40004000237010BD2881FF1F00000000543A000008B5064B1BB106480649AFF300800648036813B1054B03B1984708BD00000000543A00002C81FF1F0881FF1F000000000D
:4000800080B582B000AF1D4B1C4A1278D2B2D2B222F00E02D2B242F00402D2B2D2B21A70164B164A1278D2B242F00102D2B21A70124B124A1278D2B222F04002D2B21A701F
:4000C0000A2001F00DFA0D4B1B78DBB203F010037B600A4B1B78DBB203F01003002B06D0074B1B78DBB203F0C003402B02D1044B40221A7000F066FAFEE700BF26500040BE
:40010000FA46004080B400AFFEE700BF80B586B000AF224B7B61224B3B61204B7B6135E03B691B68FB603B695B68BB603B699B683B6000237B600CE0FB681A68BB681A603E
:40014000BB680433BB60FB680433FB607B6804337B607A683B689A42EED13B69DB683B6000237B6008E0BB6800221A60BB680433BB607B6804337B607A683B689A42F2D14B
:400180003B6910333B617B69013B7B617B69002BC6D103F023FCFFF773FFFEE701000000743C000080B582B000AF174B174A1A60174B174A126842F400721A6000237B605A
:4001C0000FE07B68032B04D8124B7A6853F8223000E0114B114A796842F821307B6801337B607B682F2BECD90D4B1B78DAB20D4B1A700D4B094A1A6000F014F90B4B00225D
:400200001A600837BD4680BD0CED00E00004FA0514ED00E000000000050100000080FF1FBC7600400481FF1F08ED00E00081FF1F80B582B000AF78603960786800213A68B1
:4002400003F0FBFB0837BD4680BD00BF80B584B000AFF860B9607A60F868B9687A6803F0E3FB1037BD4680BD80B584B000AFF860B9607A60F868B9687A6803F0D5FB103769
:40028000BD4680BD80B483B000AF0346FB71FEE780B487B000AF7860396000233B6100237B6126E07B699B007A6813441B68BB60BB68FB73BB6823F0FF03BB6013E03B692E
:4002C0005B003A6813441B781A46BB6813443A69520039680A4452781A703B6901333B61FB7B013BFB73FB7B002BE8D17B6901337B617B690B2BD5D91C37BD465DF8047B31
:40030000704700BF80B582B000AF294B06221A70284B52221A70284B284A1278D2B21A70274B4FF4E1621A80264B41F251221A800023FB7019237B6014E0FB785B00DAB2E7
:40034000214B1B78DBB203F00103DBB21343DBB203F00303FB704FF4F07000F019FF7B68013B7B607B68002B02D0FB78032BE4D17B68002B02D10320FFF784FF134B4FF42D
:4003800080721A80114B07221A70114B00221A70104B48221A700D4B00221A700E4B00221A700E4B02221A700837BD4680BD00BF0043004000420040A14600400F01004978
:4003C000224200402042004025420040044000400640004008400040094000400140004080B483B000AF0B4B1B78FB710A4BFA7902F00702D2B21A70084BFA791209D2B2D3
:400400001A70074B44221A700C37BD465DF8047B704700BFCF0100496E5800406F5800407658004080B582B000AF72B6324B324A1278D2B242F00402D2B21A700023FB7112
:4004400013E0FA7913465B0013445B002B4A13443B603B681A683B689B889BB210461946FFF7E6FEFB790133FB71FB79062BE8D923482449FFF70CFF234B234A1278D2B246
:4004800042F00202D2B21A70204B204A1278D2B242F00202D2B21A701D4B1D4A1278D2B242F04002D2B21A701A4B1A4A1278D2B242F01002D2B21A70174818490A22FFF767
:4004C000D3FE174B164A1278D2B242F00802D2B21A70144B01221A70FFF714FF114B81221A70FFF77DFF104809490E22FFF7AEFE0837BD4680BD00BFE8460040583A000047
:40050000843A0000B43A00000350014013500140A0430040C2430040F0510040E03A00002243004000480040B043004080B485B000AF78600B467B800023FB810BE07B88AB
:40054000013B7A6813441B781A46FB891344FB817B88013B7B807B88002BF0D1FB895B429BB218461437BD465DF8047B704700BF80B586B000AFF860B9607A600023FB7537
:40058000FA680F4B9A4206D0FB68002B03D0002000F08AFF0CE00BE07B68013B7B60FA68BB681A447B6813441A78FB7D1344FB757B68002BF0D1FB7D18461837BD4680BDE0
:4005C0000080004080B582B000AF06237B60002000F06EF80346002B01D100237B601C4B1B681B68002000211A46FFF7C1FF0346FB70184B1B681B78FA78D31AFB70FB7839
:400600005B42FB70134B1B681B78FA789A4204D10F4B1B681B68002B02D1002000F044FF0D4B1B78DBB203F0C003402B02D07B68002B05D0084B00221A70002000F0AEF867
:40064000142000F0ABF800F009F80837BD4680BD1081FF1F0C81FF1FFA46004080B500AF024B80221A7000F02BFF80BDFA46004080B500AF0C4B1B78DBB203F0C003802B79
:4006800011D1094B00221A700220002100F0DCFB0346002B07D00220002100F0D5FB0346184600F003F880BDFA460040004700BF90B587B000AF0346FB71FB7903201946D5
:4006C00000F0C2FB034601331C02FB790420194600F0BAFB03462344FB600023FB740023BB74FB790320194600F0AEFB034601331B027B6111E07B691B78FB72FB7A002BAD
:4007000004D0FB7AFF2B01D00123FB74BA7CFB7A1344BB747B6901337B617A69FB689A42E9D3FB790320194600F08EFB034601331B02DB087B61FA68174B9A4202D0FB6842
:40074000DB0801E04FF40043FB600AE07B6903F190431B78DAB2BB7C1344BB747B6901337B617A69FB689A42F0D3BB7C5B42BB74BC7CFB790120194600F066FB03469C42E3
:4007800002D1FB7C002B01D1062300E0002318461C37BD4690BD00BFC0FF030080B5ADF5247D00AF0246FB1D1A700023A7F88A320023A7F888320A2387F88732002387F832
:4007C000863200F06FFD0346002B02D0002000F06BFE00F01BFC62B6002387F88D32FB1D1B78002B02D0FB1D1B7800E0FF2307F59E7107F26A2208464FF4967100F052FCEB
:40080000C7F87802FB1D1B78002B04D097F88732013B87F8873297F88732002B03D0D7F87832002BDBD1D7F87832002B00D0B0E2B7F86A32062B04D907F59E731B78012B58
:4008400003D0042387F88D3244E007F59E73DB781B029AB207F59E739B781343A7F88A32B7F88A32053307F59E72D35C1B029AB2B7F88A32043307F59E71CB5C1343A7F872
:400880007632B7F88A32DA1DB7F86A329A4203D9032387F88D321DE0B7F88A32063307F59E72D35C172B03D0042387F88D3211E0B7F88A3204339BB207F59E7210461946D0
:4008C000FFF734FE0346B7F876229A4202D0082387F88D320023A7F88E3297F88D32002B40F04C8207F59E731B7987F87532042387F88D3207F59E735B78313B0A2B00F291
:40090000398201A252F823F0350900006F090000750D0000090A00007B0B0000750D00008D0B0000E30B0000090A0000270C00005D0D000097F88632012B17D1B7F88A32AD
:40094000002B13D10020FFF7B3FE0346002B14BF00230123DBB21A4607F59E731A710123A7F88E32002387F88D3207E206E297F88632012B47D1B7F88A32012B43D197F814
:400980007532032B3FD8D14B1B681B681B0C87F8743297F8752297F874329A4208D1CB4B1B681B681B0A9BB2DBB2A7F884320DE097F8752297F874329A4203D90023A7F89B
:4009C000843203E04FF48073A7F88432B7F88432DAB207F59E731A71B7F884321B0A9BB2DAB207F59E735A7107F59E73FF229A7107F59E730022DA710423A7F88E320023B3
:400A000087F88D32BAE1B9E107F59E735B78342B23D197F88632012B40F0B081B7F88A32032B40F0AB8197F875323F2B08D997F875325BB2002B03DB1023A7F8883203E00B
:400A40004FF49073A7F88832B7F8883207F11002104600211A4602F0F0FF97F88632012B40F08A80B7F88A32022B40F28580B7F8883207F11002D118B7F88A32033B07F52F
:400A80009E720732084611461A4602F0CDFFB7F88822B7F88A3213449BB2033BA7F8883297F875323F2B0AD997F875325BB2002B05DB00F0B3FC1023A7F88A3203E04FF407
:400AC0009073A7F88A32B7F88822B7F88A329A424BD107F59E739B791B029AB207F59E735B791343A7F8883297F875323F2B27D897F875329BB21B029AB2B7F88832134477
:400B0000A7F87232714B1B681B681B0AA7F882326E4B1B681B68DBB2002B04D0B7F882320133A7F88232B7F87222B7F882329A4206D20A2387F88D320023A7F888321DE1C4
:400B400097F87502B7F8881207F11002B7F88A3200F0BAFB0346002B01D00A2300E0002387F88D3200F0F0FC02E0032387F88D320023A7F8883201E100E197F88632012B85
:400B800003D10023A7F8883203E1F7E097F88632012B25D1B7F88822B7F88A321344B3F5967F19D8002387F88D32B7F8883207F11002D118B7F88A3207F59E720432084640
:400BC00011461A4602F030FFB7F88822B7F88A321344A7F8883203E0032387F88D32CDE0CCE0B7F88A32002B1CD107F10803384A92E8030083E80300012387F88632082390
:400C0000A7F88E32B7F88E3207F59E72111D07F10802084611461A4602F006FF002387F88D32ABE0AAE097F88632012B40F09580B7F88A32032B40F0908007F59E739B7986
:400C40001B029AB207F59E735B791343A7F8703297F875323F2B13D997F875325BB2002B0EDBB7F870321B01C7F86C321948D7F86C121022FFF77CFC034687F8813212E02B
:400C800097F875321A02B7F8703213441B02C7F86C320020D7F86C124FF48072FFF768FC034687F8813297F875323F2B29D897F8753203F510331A02B7F8703213445B0117
:400CC000C7F86C320023A7F87E3216E01081FF1FEC3A000000800040B7F87E22D7F86C3213441B78DAB297F88132134487F88132B7F87E320133A7F87E32B7F87E321F2B12
:400D0000EAD997F87532032B19D1B7F87032FF2B15D10520002100F097F80346DBB297F88122D31A87F881320620002100F08CF80346DBB297F88122D31A87F8813297F8E4
:400D400081325B42DAB207F59E731A71002387F88D320123A7F88E3210E00FE00020FFF7A7FC0346002B02D1114B80221A7000F0A7FB03E0052387F88D3200BF97F88D12EC
:400D800007F59E72B7F88E32084611461A4600F011F8FB1D1B78002B3FF41EAD97F88632012B3FF419AD07F52477BD4680BD00BFFA46004080B584B000AF39601346024612
:400DC000FA71BB803B6801221A703B680133FA791A703B680233BA88D2B21A703B680333BA88120A92B2D2B21A70BB8804339BB238681946FFF79AFB0346FB81BB880433E8
:400E00003A681344FA89D2B21A70BB8805333A681344FA89120A92B2D2B21A70BB8806333A68134417221A70BB8807339AB23B1D386811461A46962300F0FCF803461846CF
:400E40001037BD4680BD00BF80B586B000AF02460B46FA71BB710223FB740023FB60FB79013B092B00F2928001A252F823F000BF990E0000B30E0000CD0E0000E30E0000F5
:400E8000FD0E0000170F0000470F0000310F00005D0F0000730F0000BA7913461B069B1A1B0203F57F3303F570737B610123FB7472E0BA7913461B069B1A1B0203F57F338F
:400EC00003F2C1337B610423FB7465E0BA7913461B069B1A1B0203F57F3303F2C5337B615AE0BA7913461B069B1A1B0203F57F3303F2C9337B610423FB744DE0BA791346E1
:400F00001B069B1A1B0203F57F3303F574737B610123FB7440E0BA7913461B069B1A1B0203F57F3303F2D1337B610123FB7433E0BA7913461B069B1A1B0203F57F3303F2E4
:400F4000D6337B6128E0BA7913461B069B1A1B0203F57F3303F2D2337B611DE0BA7913461B069B1A1B0203F57F3303F575737B6112E0BA7913461B069B1A1B0203F57F3388
:400F800003F576737B610423FB7405E0002000F08BFA00237B6100BFFB7C012B03D17B691B78DBB2FB60FB7C022B0BD17B691B78DBB2FB607B6901331B78DBB21B02FA683A
:400FC0001343FB60FB7C042B1BD17B691B78DBB2FB607B6901331B78DBB21B02FA681343FB607B6902331B78DBB21B04FA681343FB607B6903331B78DBB21B06FA68134369
:40100000FB60FB6818461837BD4680BD80B500AF62B60020022100F0B7FC024B01221A7080BD00BF4481FF1F80B500AF012000F079FF80BD80B586B000AFF8607A600A4604
:401040007A817B727B7A9BB21A46920013445B007B820220F968402200F09AFE05E0012000F03EFA7B8A013B7B82022000F046FE0346002B02D17B8A002BF0D1022000F02C
:401080003DFE0346002B02D110237B6104E07B687A891A8000237B617B6918461837BD4680BD00BF80B586B000AFF8607A600A467A817B727B7A9BB21A46920013445B0042
:4010C0007B827B89402B01D940237B812F4B1B78002B1BD005E0012000F002FA7B8A013B7B8200F0E5FD0346002B02D17B8A002BF1D100F0DDFD0346002B13D000F0E4FDFB
:40110000FFF792FF214B00221A700BE000F0DCFD0346002B06D000F0CBFD0346002B01D0FFF782FF7B7A9BB21A46920013445B007B8205E0012000F0D3F97B8A013B7B82BB
:40114000012000F0DBFD0346012B02D07B8A002BF0D1012000F0D2FD0346012B0CD17B890120F9681A4600F097FE03461A467B681A8000237B6104E07B6800221A801023D6
:401180007B617B6918461837BD4680BD4481FF1F0230800800F0058000BF013800467FF4FCAF7047EFF3108072B6704780F31088704700BFAFF3008080B582B000AF00F063
:4011C00039FA4FF0FF337B6000F05EFB0346002B24D1012000F026FB0346072B1BD11348022100F049FA0346022B0DD100237B6002E0012000F096F90D4B1B78DBB203F035
:401200000203002BF5D006E0094B1B78DBB203F00203002BE3D000F06BFB01E004237B607B6818460837BD4680BD00BF5881FF1F2247004080B582B000AF00F0FBF900F047
:4012400023FB0346002B23D100F07AFB78607B68072B1AD102E0012000F064F9104B1B78DBB203F00203002BF5D00D4B1B78DBB203F00203002B08D0094B1B78DBB29B086E
:40128000DBB2002B01D100237B6000F031FB01E004237B607B6818460837BD4680BD00BF2247004080B582B000AFFFF7C3FF78607B68002B02D1FFF77FFF78607B6818466B
:4012C0000837BD4680BD00BF80B586B000AFBA600246FA730A46BA81FB8000237B61FB7B3F2B04D8FB7B042B01D901237B61FB7B5BB2002B01DA01237B61FB7B3F2B04D941
:40130000FB7B412B01D901237B61FB7B3F2B06D8BB89B3F5807F0CD901237B6109E0BB89802B01D901237B61FB88102B01D001237B61BB68002B01D101237B617B69002BF3
:4013400062D100F0A1FA0346002B5BD1F97BBA89FB8808461146BA6800F0BAF978617B69072B4CD102E0012000F0DCF8294B1B78DBB203F00203002BF5D0264B1B78DBB28B
:4013800003F00203002B09D0224B1B78DBB29B08DBB2002B02D100237B6102E04FF0FF337B617B69002B2AD11B4B1A781A4B5B78F87BB98900F0F2F978617B69072B1ED1A0
:4013C00002E0012000F0AEF8124B1B78DBB203F00203002BF5D00F4B1B78DBB203F00203002B09D00B4B1B78DBB29B08DBB2002B02D100237B6102E04FF0FF337B6100F0B7
:4014000077FA01E004237B617B6918461837BD4680BD00BF224700405881FF1F80B582B000AFFFF7BFFE0346FB71194B184A1278D2B242F00802D2B21A70164B154A127841
:40144000D2B242F00802D2B21A70134BC8221A70124B124A1278D2B242F01002D2B21A700F4B0F4A1278D2B242F01002D2B21A7000BF0C4B1B78DBB203F02003002BF8D061
:40148000FB791846FFF792FE0837BD4680BD00BFA0430040B043004001470040AC430040BC4300400047004080B483B000AF0346FB7101BE0C37BD465DF8047B704700BFA9
:4014C00080B400AF054B054A1278D2B242F00102D2B21A70BD465DF8047B7047F646004080B582B000AF786008E00C4B1B681846FFF74EFE7B68A3F500437B607B68B3F59B
:40150000004FF2D8064B1B687A6802FB03F31846FFF73EFE0837BD4680BD00BF2081FF1F1881FF1F80B582B000AF0346FB80FB88044A127802FB03F31846FFF729FE0837C3
:40154000BD4680BD1C81FF1F80B582B000AFFFF729FE0346FB7100BF00BF00BF00BF00BF00BF00BF00BF00BF00BF00BF00BF00BF00BF00BF00BF094B084A128892B242F0E2
:40158000040292B21A80054B1B88BFF36F8FFB791846FFF70BFE0837BD4680BD0048004080B584B000AF03463960FB710F4B1B68FB60FB791F2B02D90020FFF775FFFB7997
:4015C00003F01F0310339B00FA6813441B68BB60FB7903F01F0310339B00FA6813443A681A60BB6818461037BD4680BD08ED00E080B582B000AF02460B46FA71BB71BB790E
:40160000072B02D90020FFF74FFFFB791F2B02D90020FFF749FFFB7903F01F0303F1604303F56443BA795201D2B21A700837BD4680BD00BF80B582B000AFFFF7B3FD0346AC
:40164000FB710B4B0A4A1278D2B242F00802D2B21A70084B074A1278D2B242F00802D2B21A70FB791846FFF7A1FD0837BD4680BDA0430040B043004080B584B000AF7860D5
:401680000B46FB700023FB7314E002E00120FFF749FF0D4B1B78DBB203F00103002BF5D0FB7B7A681344094A1278D2B21A70FB7B0133FB73FA7BFB789A42E6D3FB7B184646
:4016C0001037BD4680BD00BF224700402047004080B489B000AFBA600246FA730A46BA81FB800723FB612B4B1B78DBB203F00203002B45D0284BB6221A70274BD5221A7047
:40170000254B02221A70234B1B78DBB203F00203002B32D1204BFA7B1A7000237B8308E01D4B7A8BB9680A4412781A707B8B01337B837A8BFB889A42F2D3FB88B3F5807FE9
:4017400020D1FB7B3F2B1DD8FB7B03F510331A02BB8913445B017B6100237B8309E00E4B798B7A690A441278D2B21A707B8B01337B837B8B1F2BF2D904E00923FB6101E033
:401780000423FB61FB6918462437BD465DF8047B704700BF224700402047004080B485B000AFF871B980BA71FB700723FB601B4B1B78DBB203F00203002B26D0184BB6223D
:4017C0001A70174BD8221A70154B05221A70134B1B78DBB203F00203002B13D1104BFA791A700F4BBA88120A92B2D2B21A700C4BBA88D2B21A700A4BBA791A70084BFA7803
:401800001A7004E00923FB6001E00423FB60FB6818461437BD465DF8047B7047224700402047004080B485B000AF0346FB710723FB60134B1B78DBB203F00203002B16D08D
:40184000104BB6221A700F4BE1221A700D4B0E221A700B4B1B78DBB203F00203002B03D1084BFA791A7004E00923FB6001E00423FB60FB6818461437BD465DF8047B70478D
:40188000224700402047004080B582B000AF04237B60FFF787FC0346FB70124B1B78002B16D1104B01221A7000237B600E4B1B6803F00103002B0BD00B4B0B4A126822F07B
:4018C00001021A6000BF00BF00BF084B01221A60FB781846FFF76AFC7B6818460837BD4680BD00BF4881FF1F040008404C81FF1F80B582B000AFFFF755FC0346FB710D4B0A
:4019000000221A700C4B1B68012B0BD10B4B0B4A126842F001021A6000BF00BF00BF064B00221A60FB791846FFF740FC0837BD4680BD00BF4881FF1F4C81FF1F04000840BB
:4019400080B483B000AF07237B600D4B1B78DBB203F00203002B09D00A4BB6221A70094BE0221A70074B0D221A7001E004237B607B6818460C37BD465DF8047B704700BF82
:40198000224700402047004080B582B000AF02460B46FA71BB71094B1B78002B04D100F00FF8064B01221A70FA79BB791046194600F0C2F80837BD4680BD00BF5081FF1F82
:4019C00080B582B000AFFFF7EDFB0346FB714B4B4A4A1278D2B242F00102D2B21A70484B474A1278D2B242F00102D2B21A70454B01221A70444B02221A70444B434A12782E
:401A0000D2B202F07F02D2B21A700020FFF78AFD3F4B3F4A1278D2B222F00602D2B21A703C4B3C4A1278D2B222F02002D2B21A70374B374A1278D2B242F00102D2B21A700A
:401A40000120FFF76FFD2820FFF76CFD324B324A1278D2B202F07F02D2B21A702E4B2E4A1278D2B222F04002D2B21A70284B284A1278D2B242F00202D2B21A700220FFF704
:401A800051FD234B224A1278D2B242F00402D2B21A70224B00221A70214B00221A70FB791846FFF783FB17201E49FFF779FD17200721FFF79DFD15201B49FFF771FD152008
:401AC0000721FFF795FD18201849FFF769FD18200721FFF78DFD00201549FFF761FD00200721FFF785FD01201249FFF759FD01200721FFF77DFD0837BD4680BDA5430040A7
:401B0000B54300409D60004009600040106000409443004012600040F851004084600040856000406526000059260000851F0000B12500000526000080B584B000AF02462D
:401B40000B46FA71BB710023FB7306E0FB7B284A0121D154FB7B0133FB73FB7B002BF5D0244B4FF400021A60224B4FF080721A60204B01221A601F4B02221A601E4B002278
:401B80001A70BB79002B02D0012B04D007E01B4B02221A7007E0194B03221A7003E0174B03221A7000BF164BFA791A70154B00221A70154B00221A70144B00221A70144BE2
:401BC00000221A70134B00221A70134B00221A70124B03221A70124B80221A700120FFF7D7FA104B04221A701037BD4680BD00BFFC81FF1F00E100E07681FF1F096000403D
:401C00007081FF1F7581FF1F7181FF1F7481FF1F5C81FF1F7381FF1FED81FF1F28600040086000401260004080B483B000AF0023FB7106E0FB79144A0121D154FB79013357
:401C4000FB71FB79002BF5D0104B00221A70104B00221A700F4B00221A700F4B00221A700E4B00221A700E4B00221A700D4B00221A700D4B03221A700C4B80221A700C379F
:401C8000BD465DF8047B7047FC81FF1F7681FF1F7581FF1F7181FF1F7481FF1F5C81FF1F7381FF1FED81FF1F286000400860004080B400AF034B1B78DBB21846BD465DF89F
:401CC000047B70477581FF1F80B483B000AF0023FB71094B1B78DBB2002B05D0064B1B78FB71054B00221A70FB7918460C37BD465DF8047B704700BF7481FF1F80B483B059
:401D000000AF0346FB71FA79064913465B0013449B000B445B78DBB218460C37BD465DF8047B70478081FF1F80B485B000AF0346FB710023FB81FB79002B1DD0FB79082B3B
:401D40001AD8FB79013BDBB21B017B737A7B0E4B13441B78DBB203F00F03FB81FB891B029AB2797B094B0B441B78DBB213439BB2FB81FB89023BFB81FB8918461437BD46B4
:401D80005DF8047B704700BF0C6000400D60004090B484B000AF396013460246FA71BB80FB79002B69D0FB79082B66D8FB79013BDBB21B017B737A7B324B1344BB60B98850
:401DC000FA79314813465B0013449B000344DB889BB2C3F5007399420BD9FA792A4913465B0013449B000B44DB889BB2C3F50073BB807A7B254B13441946BB881B0A9BB2AF
:401E0000D8B2FA79204C13465B0013449B002344DB78DBB20343DBB20B707A7B1C4B1344BA88D2B21A703B68002B0FD00023FB8108E0FB893A6813441A78BB681A70FB8987
:401E40000133FB81FA89BB889A42F2D3FA790E4913465B0013449B000B4400225A707A7B0C4B13441946FA79074813465B0013449B0003445B79DBB20B701037BD4690BC7D
:401E8000704700BF886000408081FF1F0C6000400D6000400E60004080B586B000AF396013460246FA71BB80FB79002B30D0FB79082B2DD83B68002B2AD0FB79013BDBB214
:401EC0001B017B757A7D164B13443B61FB791846FFF72AFF0346FB81BA88FB899A4201D9FB89BB800023FB8209E0FB8A3A6813443A691278D2B21A70FB8A0133FB82FA8A9E
:401F0000BB889A42F1D3FB79184600F00BF801E00023BB80BB8818461837BD4680BD00BF8860004080B485B000AF0346FB71FB79002B1ED0FB79082B1BD8FB79013BDBB272
:401F40001B01FB73FA790D4913465B0013449B000B4400225A70FA7B094B13441946FA79064813465B0013449B0003445B79DBB20B701437BD465DF8047B70478081FF1F2C
:401F80000E60004080B582B000AF374B1B78BB71BB7903F01003002B63D00123FB71BB795BB2002B13DABB7903F00F03012B02D00023FB711DE000F061F82C4B1B78DBB2F8
:401FC000DBB25BB2002B14DA0023FB7111E0BB7903F04003002B02D000F094F809E0BB7903F02003002B02D000F0B2F801E00023FB71FB79002B34D01B4B1B78BB71BB7995
:402000005BB2002B2DDB1A4B1B78DAB2194B1B78DBB21343BB71184BBA791A70164B1B78DBB2BA799A421CD1104B1B78FB710E4B1B78DBB223F07F03BB71BB79002B0AD16B
:40204000094B0A4A1278D2B21A70074B1B78DBB203F00F03FB71054B1B78DBB2FA799A42E2D10837BD4680BD286000405D81FF1F7281FF1FEE81FF1F2960004080B582B0BA
:4020800000AF1D4B1B78FB711B4BFA791A701A4B1B78FB71FB795BB2002B03DA174BFA791A7025E0022000F049FA154B1B78DBB203F06003202B08D0402B0BD0002B0ED1B8
:4020C00000F0B8FC0346FB710CE001F041FC0346FB7107E001F01EFC0346FB7102E00023FB7100BFFB79002B02D1044B03221A700837BD4680BD00BF286000405D81FF1F6F
:402100000060004080B500AF104B1B78DBB2062B19D801A252F823F0472100004721000035210000472100003B210000472100004121000000F0FCF806E000F0AFF903E085
:4021400000F0D8F900E000BF80BD00BF7681FF1F80B500AF124B1B78DBB2062B1DD801A252F823F09B2100009B210000812100009B210000872100009B2100008D2100007F
:4021800000F0DCF80AE000F02DF907E0032000F0D5F9044B03221A7000E000BF80BD00BF7681FF1F5D81FF1F80B483B000AF0023FB712B4B1B78DBB21A462A4B1B889BB2E9
:4021C00013449AB2274B1A8018E0FB7903F1804303F5C043244A52681278D2B21A70224B5B685A1C204B5A60FB790133FB711E4B1B889BB2013B9AB21B4B1A801A4B1B888A
:402200009BB2002B02D0FB79072BDED9144B1B78DBB2082B02D0FB79002B0FD0134B1B78DBB283F07F03DB43DAB2104B1A70104B0F221A700F4B02221A7005E00C4B022275
:402240001A700C4B02221A70054BFA791A700A4BFA791A700C37BD465DF8047B704700BFED81FF1FF081FF1F6481FF1F7281FF1F5D81FF1F7681FF1FEE81FF1F80B582B06C
:4022800000AF154B1B889BB2002B02D100F02EF81DE0124B02221A70114B00221A7000F06DF9104B1B78DBB21B029AB20E4B1B78DBB213439BB2FB80074B1B889BB2FA8866
:4022C0009A4202D2044BFA881A80FFF76DFF012318460837BD4680BD6481FF1F7681FF1F7281FF1F076000400660004080B400AF0A4B02221A700A4B80221A70094B0F22FE
:402300001A70094B00221A70084B00221A7001231846BD465DF8047B704700BF7681FF1F7281FF1F5D81FF1FED81FF1FEE81FF1F80B500AFFFF738FF80BD00BF80B500AF19
:402340000A4B1B78DBB21A46094B1B889BB213449AB2074B1A80074B00221A70012000F0EDF8054B03221A7080BD00BFED81FF1FF081FF1F7681FF1F5D81FF1F80B582B033
:4023800000AF124B04221A70114B80221A7000F0F5F8104B1B78DBB21B029AB20E4B1B78DBB213439BB2FB800C4B1B889BB2FA889A4202D2094BFA881A80094B0B221A708D
:4023C000012318460837BD4680BD00BF7681FF1F7281FF1F07600040066000406481FF1F5D81FF1F80B483B000AF0023BB71254B1B78DBB203F00F03DBB2023BFB71FB7907
:402400009AB2214B1B889BB213449AB21E4B1A801BE01E4B5A68BB7903F1804303F5C0431B78DBB21370194B5B685A1C174B5A60BB790133BB71FB79013BFB71134B1B8835
:402440009BB2013B9AB2114B1A80104B1B889BB2002B02D0FB79002BDBD10D4BFA791A700C4B1B78DBB283F07F03DB43DAB2094B1A70094B0B221A700C37BD465DF8047B90
:40248000704700BF29600040F081FF1F6481FF1FEE81FF1F7281FF1F5D81FF1F80B500AF044B00221A70012000F048F8024B03221A7080BD7681FF1F5D81FF1F80B400AF54
:4024C000084B06221A70084B06221A70074B80221A70074B00221A7001231846BD465DF8047B70477681FF1F5D81FF1F7281FF1FEE81FF1F80B500AF0C4B1B78DBB2002B11
:402500000AD00B4B094A1278D2B262F07F02D2B21A70064B00221A70064B00221A70012000F00CF8044B03221A7080BD5C81FF1F086000407681FF1F5D81FF1F80B483B0C4
:4025400000AF0346FB710B4B9B68002B0CD0094B9B68FA791A70074B9B68074A128892B25A80044B00229A600C37BD465DF8047B704700BF6481FF1FF081FF1F80B400AF75
:40258000094B00221A80094B9B68002B07D0074B9B6800221A70054B9B6800225A80BD465DF8047B704700BFF081FF1F6481FF1F80B400AF104B1B78104B1B7BDBB203F041
:4025C0000303012B08D00D4BDB7BDBB283F07F03DB43DAB2094BDA73084B01225A73084B074A1278D2B222F00102D2B21A70BD465DF8047B704700BF0E6000408081FF1F24
:402600000B60004080B400AF104B1B78104B1B7EDBB203F00303012B08D00D4BDB7EDBB283F07F03DB43DAB2094BDA76084B01225A76084B074A1278D2B222F00202D2B28D
:402640001A70BD465DF8047B704700BF1E6000408081FF1F0B60004080B400AFBD465DF8047B704780B500AFFFF7DEFA80BD00BF80B582B000AF0023FB716F4B1B78BB71BE
:402680006E4B1B78DBB2DBB25BB2002B6DDA6C4B1B78DBB2013B052B65D801A252F823F0FF26000019270000452700006727000067270000B9260000624B1B78DBB2212BD0
:4026C0000BD100F0CBF8604B1B889BB2002B15D0FFF7D4FD0346FB7146E05A4B1B78DBB2222B0BD100F0F8F8574B1B889BB2002B04D0FFF7C3FD0346FB7135E034E000F01B
:4027000031F9514B1B889BB2002B04D0FFF7B6FD0346FB7128E027E0BB79002B11D14B4B1B78DBB2002B0CD1474B01221A80BA79474B1A44444B5A60FFF7A0FD0346FB7175
:4027400012E011E0BB79002B0CD13F4B01221A80BA79404B1A443C4B5A60FFF78FFD0346FB7101E000E000BF61E0344B1B78DBB2DBB25BB2002B5ADB314B1B78DBB20A2B34
:4027800011D00B2B3FD0092B00D050E000F0EAF82D4B1B889BB2002B04D0FFF7EFFD0346FB7144E043E0BB79002B2BD1274B1B78DBB2002B26D1BB79224A1278D1B2244A7E
:4027C000D154BB79224AD35CDAB2BB792249CB5CDBB29A4204D2BB791F4A0021D1540CE0BB791D4AD35CDBB2012B06D9BB79BA7917498A5CD1B2184AD154FFF75FFE0346D0
:40280000FB7114E013E0BB79002B0FD10F4B1B78DBB2012B0AD8BB790C4A1278D1B20D4AD154FFF74BFE0346FB71FFE700BFFB7918460837BD4680BD04600040006000403D
:4028400001600040036000406481FF1F02600040F481FF1FFC81FF1FF881FF1F80B584B000AF194B1B78DBB2013BDBB2184600F0A1FEF860154B1B78FB72FB7A0233DB001B
:40288000FA681344FB60FB685B68FB60FB7A104AD35CDBB2DB00FA681344FB60FB685B68FB60FB682033FB60FB685B687B607B681B78DBB21A46074B1A80064B7A685A603A
:4028C0001037BD4680BD00BF7581FF1F046000406081FF1F6481FF1F80B584B000AF1D4B1B78DBB2013BDBB2184600F063FEF860194B1B78FB72FB7A0233DB00FA681344C6
:40290000FB60FB685B68FB60FB7A144AD35CDBB2DB00FA681344FB60FB685B68FB60FB681833FB60FB685B687B607B6801331B78DBB21B029AB27B681B78DBB213439BB26C
:402940009AB2074B1A807B689A1C054B5A601037BD4680BD7581FF1F046000406081FF1F6481FF1F80B584B000AF2C4B00221A802B4B1B78DBB2013BDBB2184600F01AFE2B
:40298000F860284B1B78FB72274B1B78BB72BB7A0233DB00FA681344FB60FB685B68FB60BB7A002B37D1BB7A204AD35CDBB2DB00FA681344FB60FB685B68FB60FB7A002B6D
:4029C00029D0FB7A032B26D8FB7A03F10053013BDB00FA681344FB60154B1B78FB72FB681B78FA7A9A4216D8FB685B687B60FA7A13465B0013449B007A6813447B607B68B0
:402A00005A68064B5A607B681A88044B1A807B689A68024B9A601037BD4680BD6481FF1F7581FF1F03600040046000406081FF1F0260004080B586B000AF0023FB750023D9
:402A40003B61984B00221A80974B1B78DBB2DBB25BB2002B80F2FB80944B1B78DBB20A2B00F2F38001A252F823F000BF9F2B00004B2C00004B2C00004B2C00004B2C000069
:402A80004B2C0000992A00004B2C0000152C00004B2C00002B2C0000854B1B78DBB2012B0ED100F0B1FDB860BB685A687D4B5A607C4B12221A80FFF7E1FB0346FB756DE0D1
:402AC0007B4B1B78DBB2022B23D17A4B1B78DBB2184600F06FFDB860BB68002B5ED0BB685A68704B5A606F4B5B6803331B78DBB21B029AB26B4B5B6802331B78DBB21343E2
:402B00009BB29AB2674B1A80FFF7B8FB0346FB759CE0674B1B78DBB2032B3AD10023FB73654B3B6109E03B691B78FB71FB793A6913443B61FB7B0133FB735E4B1B78DBB273
:402B4000FA7B9A4204D23B691B78DBB2002BEAD1584B1B78DBB2002B08D0564B1B78DAB2564B1B7C9A4201D1554B3B613B691B78DBB2002B12D03B691B78DBB21A46494B53
:402B80001A80484B3A695A60FFF778FB0346FB755CE000F0DDFE0346FB7557E056E0424B1B78DBB203F00303002B1FD0022B00D02FE03C4B02221A80424B1B78DBB203F08B
:402BC0007F02414913465B0013449B000B449B78DAB23E4B1A703D4B00225A70314B3B4A5A60FFF74BFB0346FB7512E02D4B02221A80374B1B78DAB2344B1A70334B00228D
:402C00005A70284B314A5A60FFF738FB0346FB7500BF1BE0234B01221A80224B2D4A5A60FFF72CFB0346FB7510E01E4B01221A80244B1B78DBB21A46274B1A44194B5A60F4
:402C4000FFF71CFB0346FB7500E000BF1DE1174B1B78DBB2013B0A2B00F2168101A252F823F000BF712D0000892E0000FD2D0000892E0000912C0000892E0000892E000055
:402C8000892E0000E12C0000892E0000372D0000084B1B78DAB2114B1A70FFF70FFC0346FB75F2E06481FF1F00600040016000400360004002600040343B0000F43A00002B
:402CC000883B0000046000408081FF1F5481FF1F7381FF1F7581FF1F6081FF1F5C81FF1F6C4B1B78BB71BB79002B06D0BB79013BDBB2184600F05EFCB860BB79002B02D0A2
:402D0000BB68002B02D1BB79002B13D1624B1B78DBB2BA799A4208D05F4BBA791A705F4B01221A70012000F089F9FFF7C7FB0346FB75AAE0A9E000F0B1FD0346002B16D0AE
:402D4000574B1B787B71574B7A791A70534B01221A7000F0F5FA7B797A7953498A5CD1B2524AD154FFF7AAFB0346FB758DE08CE04F4B1B78DBB203F00303012B22D0012B12
:402D80000DD3022B00D038E0424B1B78DBB2002B04D100F0E1FC0346FB752EE02DE03D4B1B78DBB2012B0CD1424B1B78DBB223F00203DAB23F4B1A70FFF780FB0346FB7590
:402DC0001BE01AE0364B1B78DBB2002B14D1344B1B78DBB21A463849CB5CD9B22D4B1B78DBB2DB43DBB20B40D9B2334B9954FFF765FB0346FB75FFE700BF46E02C4B1B7893
:402E0000DBB203F00303012B22D0012B0DD3022B00D038E01F4B1B78DBB2002B04D100F02BFC0346FB752EE02DE01A4B1B78DBB2012B0CD11F4B1B78DBB243F00203DAB27C
:402E40001C4B1A70FFF73AFB0346FB751BE01AE0134B1B78DBB2002B14D1114B1B78DBB21A461549CB5CD9B20A4B1B78DBB2DB43DBB20B40D9B2104B9954FFF71FFB034677
:402E8000FB75FFE700BF00E000BFFB7D18461837BD4680BD026000407581FF1F7481FF1F046000407181FF1F6081FF1FEC81FF1F006000407381FF1F7881FF1F80B483B0C2
:402EC00000AF0123FB710023BB7197E0BB7903F1804303F5C1430C221A70FA794E4913465B0013449B000B445B79DBB2002B18D0FA79494913465B0013449B000B441B792D
:402F0000DBB2DBB25BB2002B05DABA79434B13440C221A700AE0BA79404B134408221A7004E0BA793D4B134480221A70BA793C4B13441946FA79384813465B0013449B00B2
:402F4000034408331B889BB21B0A9BB2DBB20B70BA79344B13441946FA792F4813465B0013449B00034408331B889BB2DBB20B70BA792D4B13441946FA79274813465B00FC
:402F800013449B000344DB889BB2DBB20B70BA79264B13441946FA791F4813465B0013449B000344DB889BB21B0A9BB2DBB20B70BA791F4B13441946FA79174813465B00FC
:402FC00013449B000344DB889BB2DBB20B70BA79184B13441946FA790F4813465B0013449B000344DB889BB21B0A9BB2DBB20B70FB790133FB71BB791033BB71BB795BB2BB
:40300000002BBFF663AF0C4BFF221A700C37BD465DF8047B704700BF8081FF1F0E6000400C6000400D600040866000408760004084600040856000400A60004080B588B039
:4030400000AF0346FB7100237B830023FB7743E0FA7FA34913465B0013449B000B4400221A70FA7F9E4913465B0013449B000B4400229A70FA7F9A4913465B0013449B008A
:403080000B4400225A70FA7F954913465B0013449B000B440022DA70FA7F914913465B0013449B000B4400225A71FA7F8C4913465B0013449B000B44083300221A80FA7F35
:4030C000874913465B0013449B000B44083300229A70FB7F0133FB77FB7F082BB8D9FB79002B10D000237B770AE07B7F7D4A0021D1547B7F7C4A0021D1547B7F01337B779B
:403100007B7F002BF1D0794B1B78DBB2002B00F01181764B1B78DBB2013BDBB2184600F049FA38613B695B68FB60FB6807331B7803F04003002B08D06D4B1B78DBB243F00E
:403140000103DAB26A4B1A7007E0694B1B78DBB223F00103DAB2664B1A703B6908333B613B691B78FB7701237B778DE03B695B687B610023BB777FE07A7F7B699B7803F066
:403180007F039A4272D17A7F554913465B0013449B000B4408331B889AB27B699B889A420BD27A7F7B6999884D4813465B0013449B00034408330A461A807B691B78494A49
:4031C000D35CDAB27B695B789A424FD17B69DB7803F00303FB727B699B78DBB25BB2002B17DA7A7F3E4913465B0013449B000B4401225A70797FFB7A012B01D1072200E041
:403200000D2237480B465B000B449B0003445A7116E07A7F324913465B0013449B000B4400225A70797FFB7A012B01D1052200E009222B480B465B000B449B0003445A7135
:403240007A7F7B699978264813465B0013449B0003440A461A717A7F7B69D978204813465B0013449B0003440A461A707B6908337B61BB7F0133BB77BA7FFB7F9A42FFF4B0
:403280007BAF7B7F01337B777B7F082B7FF66EAF3B695B687B6100237B7714E07B699B7803F07F027B6919780D4813465B0013449B00034408330A469A707B6908337B6107
:4032C0007B7F01337B777A7FFB7F9A42E6D300F0ADF90246074B1A600123FB7725E000BF8081FF1F6081FF1FEC81FF1F7581FF1F7381FF1F7C81FF1FFA7F104913465B0032
:4033000013449B000B447A8BDA80FA7F0B4913465B0013449B000B4408331B889AB27B8B13447B83FB7F0133FB77FB7F082BE3D9FFF7C4FD2037BD4680BD00BF8081FF1FF1
:4033400080B584B000AF8F4B1B78DBB2002B00F015818C4B1B78DBB2013BDBB2184600F029F978607B6808337B607B681B78FB707B685B68BB600023FB73FAE0BB681B78C6
:40338000814AD35CDAB2BB681B788049CB5CDBB29A4200F0E880BB681B787B4AD35CDAB2BB685B789A4240F0DE80BB681A78784B1B78DBB29A4240F0D680BB689B7803F067
:4033C0007F03BB70BB78013BDBB21B017B70BB68DB7803F003033B70BB689B78DBB25BB2002B17DABA786B4913465B0013449B000B4401225A70B9783B78012B01D1072244
:4034000000E00D2263480B465B000B449B0003445A7116E0BA785F4913465B0013449B000B4400225A70B9783B78012B01D1052200E0092257480B465B000B449B000344E9
:403440005A717A78544B134401221A70BA78BB689988504813465B0013449B00034408330A461A80BA78BB6899784A4813465B0013449B0003440A461A71BA78BB68D97866
:40348000444813465B0013449B0003440A461A70BA78404913465B0013449B000B440022DA707A783D4B13441946BA78394813465B0013449B00034408331B889BB21B0A7D
:4034C0009BB2DBB20B707A78354B13441946BA78304813465B0013449B00034408331B889BB2DBB20B707A782E4B13441946BA78284813465B0013449B000344DB889BB225
:40350000DBB20B707A78284B13441946BA78214813465B0013449B000344DB889BB21B0A9BB2DBB20B707A78204B13441946BA78184813465B0013449B000344DB889BB274
:40354000DBB20B707A781A4B13441946BA78114813465B0013449B000344DB889BB21B0A9BB2DBB20B70BB680833BB60FB7B0133FB73FA7BFB789A42FFF400AF1037BD4653
:4035800080BD00BF7581FF1F6081FF1FEC81FF1F046000408081FF1F0E6000400C6000400D6000408660004087600040846000408560004080B485B000AF0346FB71104BE9
:4035C0001B78DBB20F4ADB0013445B68FB60FB680833FB60FB681B78FA799A4202D30023FB6005E0FB79DB00FA6813445B68FB60FB6818461437BD465DF8047B704700BF0D
:403600007081FF1F483C000080B400AF054B1B78DBB2054ADB0013445B681846BD465DF8047B70477081FF1F483C000080B584B000AF104B1B78DBB2013BDBB21846FFF731
:40364000B9FFB860BB68002B0DD0BB685B681B79FB71FB790233DB00BA681344BB60BB685B68FB6001E00023FB60FB6818461037BD4680BD7581FF1F80B582B000AF00231C
:40368000FB71324B1B78DBB203F07F03BB71BB79013BDBB21B017B71BB79002B51D0BB79082B4ED8BA79B97929480B465B000B449B0003449B78DBB243F00103D9B22448CD
:4036C00013465B0013449B0003440A469A70BA791F4913465B0013449B000B440022DA70BA79B9791A480B465B000B449B0003445B78DBB243F00203D9B2154813465B00AF
:4037000013449B0003440A465A70BA79104913465B0013449B000B441B79DBB2DBB25BB2002B05DA7A790B4B13448D221A7004E07A79084B134489221A70FEF7BFFE034666
:40374000FB71FB7918460837BD4680BD046000408081FF1F0E60004080B582B000AF0023FB714A4B1B78DBB203F07F03BB71BB79013BDBB21B017B71BB79002B00F08180CB
:40378000BB79082B7DD8BA79B97941480B465B000B449B0003449B78DBB223F00103D9B23B4813465B0013449B0003440A469A70BA79374913465B0013449B000B440022AC
:4037C000DA707A79334B13441A467979314B0B441B78DBB203F07F03DBB21370BA79B9792B480B465B000B449B0003445B78DBB223F00203D9B2264813465B0013449B0029
:4038000003440A465A70BA79214913465B0013449B000B441B79DBB2DBB25BB2002B16DABA791B4913465B0013449B000B445B78DBB2012B05D17A79174B13440C221A706D
:403840001BE07A79144B13440D221A7015E0BA790F4913465B0013449B000B445B78DBB2012B05D17A790C4B134408221A7004E07A79094B134409221A70FEF71FFE03462D
:40388000FB71FB7918460837BD4680BD046000408081FF1F0C6000400E60004080B584B000AF0123FB73164B1B78BB73154B1B78DBB2013BDBB21846FFF77CFEB860BB6810
:4038C0005B681B79FB71BA7BFB799A4202D2BB7B002B02D00023FB730CE0BB7BBA7B0A498A5CD1B2094AD154BB7B094A1278D1B2054AD154FB7B18461037BD4680BD00BF39
:40390000046000407581FF1F6081FF1FEC81FF1F0260004080B483B000AF0023FB710A4B1B78DBB2DBB25BB2002B06DA074B1B78DBB2012B00D000E000BFFB7918460C37C2
:40394000BD465DF8047B7047006000400160004080B582B000AF0023FB710023BB711B4B1B78DBB203F00303012B02D0022B04D012E0174B1B78BB710EE0154B1B78DBB285
:4039800003F07F02134913465B0013449B000B4408339B78BB7100BF0F4B1A68BB7913441B78022B09D0032B02D0012B07D007E0FEF75EFE0346FB7102E000BF00E000BFD9
:4039C000FB7918460837BD4680BD00BF00600040046000408081FF1F7C81FF1F70B50E4B0E4D0024ED1AAD101E46AC4204D056F8242090470134F8E700F02AF9084D094B19
:403A00000024ED1AAD101E46AC4204D056F8242090470134F8E770BD5C3C00005C3C0000643C00005C3C000010B50023934203D0CC5CC4540133F9E710BD02440346934251
:403A400002D003F8011BFAE7704700003B000000A83C000000000000005100407000C0510040100000000140001000140140000800400140000A004C0140000200500140EB
:403A80002000000001450040015200400117014001190140034001400241014002420140024301400347014003480140024C0140015101407E027C40EE0AEE0A3380364078
:403AC000CC30A640A780A640A780A640A78008080F40C20CAE40AF80EE50AC08AF40000A0000000000000000C000000069A0162E001E01011201000200000008B4041DB798
:403B000001300102800100000902290001010080000904000002030000020921110100012224000705010340000107058203400001000000040309042C03430079007000F1
:403B400072006500730073002000530065006D00690063006F006E0064007500630074006F0072002203500053006F0043003300200042006F006F0074006C006F0061006C
:403B800064006500720000000A0330003000300031000000240005010900A1000900A1000900150025FF7508954091020900150025FF750895408102C0C00000410000007F
:403BC0000482FF1F0082FF1F410000004882FF1F8C82FF1F00000000BC3B000000000000C83B0000000000000000000001000000943B0000010000001A3B0000010000000B
:403C0000D43B0000000001034000030000008203400003000300000001000000083B000002000000043C000001000000FC3B000000000000143C000001000000F43A000026
:403C400001000000183C000001000000383C0000F8B500BFF8BC08BC9E46704751000000A5010000F8B500BFF8BC08BC9E4670472D000000883C00000881FF1F20000000CD
:403C80006801000000000000000000004C3A0000503A000000366E01C05D0000180000000000E02E00000000000000000000000000000000000000000000000000000000A3
:403CC00000000000000000000000000000000000000000000000000000000000000000000000000000000000000000000000000000000000000000000000000000000000C4
:403D00000000000000000000000000000000000000000000000000000000000000000000000000000000000000000000000000000000000000000000000000000000000083
:403D40000000000000000000000000000000000000000000000000000000000000000000000000000000000000000000000000000000000000000000000000000000000043
:403D80000000000000000000000000000000000000000000000000000000000000000000000000000000000000000000000000000000000000000000000000000000000003
:020000040003F7
:40FFC00000000000000000000000000000000000000000000100010000000000000000000000000000000000000000000000000000000000000000000000000000000000FF
:0200000480007A
:4000000000000000000000000000000000000000000000000000000000000000000000000000000000000000000000000000000000000000000000000000000000000000C0
:400040000000000000000000000000000000000000000000000000000000000000000000000000000000000000000000000000000000000000000000000000000000000080
:400080000000000000000000000000000000000000000000000000000000000000000000000000000000000000000000000000000000000000000000000000000000000040
:4000C0000000000000000000000000000000000000000000000000000000000000000000000000000000000000000000000000000000000000000000000000000000000000
:0200000490006A
:0400000000004005B7
:0200000490105A
:04000000BC90ACAF55
:0200000490303A
:020000005D029F
:0200000490402A
:4000000000000000000000000000000000000000000000000000000000000000000000000000000000000000000000000000000000000000000000000000000000000000C0
:400040000000000000000000000000000000000000000000000000000000000000000000000000000000000000000000000000000000000000000000000000000000000080
:400080000000000000000000000000000000000000000000000000000000000000000000000000000000000000000000000000000000000000000000000000000000000040
:4000C0000000000000000000000000000000000000000000000000000000000000000000000000000000000000000000000000000000000000000000000000000000000000
:0200000490501A
:0C00000000012E16A06900012E2DFD6BE2
:00000001FF